{
  "contractName": "Credentials",
  "abi": [
    {
      "inputs": [
        {
          "internalType": "uint256",
          "name": "",
          "type": "uint256"
        }
      ],
      "name": "ac",
      "outputs": [
        {
          "internalType": "string",
          "name": "username",
          "type": "string"
        },
        {
          "internalType": "string",
          "name": "password",
          "type": "string"
        },
        {
          "internalType": "int256",
          "name": "id",
          "type": "int256"
        }
      ],
      "stateMutability": "view",
      "type": "function",
      "constant": true
    },
    {
      "inputs": [
        {
          "internalType": "uint256",
          "name": "",
          "type": "uint256"
        }
      ],
      "name": "c",
      "outputs": [
        {
          "internalType": "string",
          "name": "username",
          "type": "string"
        },
        {
          "internalType": "string",
          "name": "password",
          "type": "string"
        }
      ],
      "stateMutability": "view",
      "type": "function",
      "constant": true
    },
    {
      "inputs": [
        {
          "internalType": "string",
          "name": "_username",
          "type": "string"
        },
        {
          "internalType": "string",
          "name": "_password",
          "type": "string"
        }
      ],
      "name": "addCredentials",
      "outputs": [],
      "stateMutability": "nonpayable",
      "type": "function"
    },
    {
      "inputs": [
        {
          "internalType": "int256",
          "name": "id",
          "type": "int256"
        },
        {
          "internalType": "string",
          "name": "_username",
          "type": "string"
        },
        {
          "internalType": "string",
          "name": "_password",
          "type": "string"
        }
      ],
      "name": "adminaddCredentials",
      "outputs": [],
      "stateMutability": "nonpayable",
      "type": "function"
    },
    {
      "inputs": [],
      "name": "getLength",
      "outputs": [
        {
          "internalType": "uint256",
          "name": "",
          "type": "uint256"
        }
      ],
      "stateMutability": "view",
      "type": "function",
      "constant": true
    },
    {
      "inputs": [
        {
          "internalType": "string",
          "name": "v_username",
          "type": "string"
        },
        {
          "internalType": "string",
          "name": "v_password",
          "type": "string"
        }
      ],
      "name": "VerifyCredentials",
      "outputs": [
        {
          "internalType": "string",
          "name": "",
          "type": "string"
        }
      ],
      "stateMutability": "view",
      "type": "function",
      "constant": true
    },
    {
      "inputs": [
        {
          "internalType": "string",
          "name": "v_username",
          "type": "string"
        },
        {
          "internalType": "string",
          "name": "v_password",
          "type": "string"
        },
        {
          "internalType": "int256",
          "name": "id",
          "type": "int256"
        }
      ],
      "name": "adminVerifyCredentials",
      "outputs": [
        {
          "internalType": "string",
          "name": "",
          "type": "string"
        }
      ],
      "stateMutability": "view",
      "type": "function",
      "constant": true
    },
    {
      "inputs": [
        {
          "internalType": "int256",
          "name": "id",
          "type": "int256"
        },
        {
          "internalType": "string",
          "name": "v_username",
          "type": "string"
        },
        {
          "internalType": "string",
          "name": "v_password",
          "type": "string"
        }
      ],
      "name": "adminVerifyCredentials",
      "outputs": [
        {
          "internalType": "bool",
          "name": "",
          "type": "bool"
        }
      ],
      "stateMutability": "view",
      "type": "function",
      "constant": true
    },
    {
      "inputs": [
        {
          "internalType": "string",
          "name": "username",
          "type": "string"
        },
        {
          "internalType": "string",
          "name": "password",
          "type": "string"
        }
      ],
      "name": "deleteAccount",
      "outputs": [],
      "stateMutability": "nonpayable",
      "type": "function"
    },
    {
      "inputs": [
        {
          "internalType": "int256",
          "name": "id",
          "type": "int256"
        },
        {
          "internalType": "string",
          "name": "username",
          "type": "string"
        },
        {
          "internalType": "string",
          "name": "password",
          "type": "string"
        }
      ],
      "name": "admindeleteAccount",
      "outputs": [],
      "stateMutability": "nonpayable",
      "type": "function"
    }
  ],
  "bytecode": "0x608060405234801561001057600080fd5b50611977806100206000396000f3fe608060405234801561001057600080fd5b506004361061009e5760003560e01c8063a9545ad011610066578063a9545ad01461016e578063be1c766b1461018a578063c8c9625d146101a8578063ea9b260d146101d8578063f3eb2cd5146102085761009e565b80632eae9489146100a357806345aea9d7146100d35780634d7b6d50146100ef5780634f8dd50d14610121578063705d8c4714610152575b600080fd5b6100bd60048036038101906100b891906114a7565b610224565b6040516100ca919061163c565b60405180910390f35b6100ed60048036038101906100e891906114a7565b61048e565b005b61010960048036038101906101049190611592565b6106e9565b60405161011893929190611695565b60405180910390f35b61013b60048036038101906101369190611592565b610833565b60405161014992919061165e565b60405180910390f35b61016c60048036038101906101679190611428565b610977565b005b610188600480360381019061018391906114a7565b610c31565b005b610192610cb7565b60405161019f91906116da565b60405180910390f35b6101c260048036038101906101bd9190611513565b610cc3565b6040516101cf919061163c565b60405180910390f35b6101f260048036038101906101ed9190611428565b610f84565b6040516101ff9190611621565b60405180910390f35b610222600480360381019061021d9190611428565b6111e0565b005b606060005b60008054905081101561044e5761031360008281548110610273577f4e487b7100000000000000000000000000000000000000000000000000000000600052603260045260246000fd5b9060005260206000209060020201600001805461028f906117c9565b80601f01602080910402602001604051908101604052809291908181526020018280546102bb906117c9565b80156103085780601f106102dd57610100808354040283529160200191610308565b820191906000526020600020905b8154815290600101906020018083116102eb57829003601f168201915b505050505085611277565b80156103f857506103f760008281548110610357577f4e487b7100000000000000000000000000000000000000000000000000000000600052603260045260246000fd5b90600052602060002090600202016001018054610373906117c9565b80601f016020809104026020016040519081016040528092919081815260200182805461039f906117c9565b80156103ec5780601f106103c1576101008083540402835291602001916103ec565b820191906000526020600020905b8154815290600101906020018083116103cf57829003601f168201915b505050505084611277565b5b1561043b576040518060400160405280600481526020017f7472756500000000000000000000000000000000000000000000000000000000815250915050610488565b80806104469061182c565b915050610229565b506040518060400160405280600581526020017f66616c736500000000000000000000000000000000000000000000000000000081525090505b92915050565b60005b6000805490508110156106e45761057b600082815481106104db577f4e487b7100000000000000000000000000000000000000000000000000000000600052603260045260246000fd5b906000526020600020906002020160000180546104f7906117c9565b80601f0160208091040260200160405190810160405280929190818152602001828054610523906117c9565b80156105705780601f1061054557610100808354040283529160200191610570565b820191906000526020600020905b81548152906001019060200180831161055357829003601f168201915b505050505084611277565b8015610660575061065f600082815481106105bf577f4e487b7100000000000000000000000000000000000000000000000000000000600052603260045260246000fd5b906000526020600020906002020160010180546105db906117c9565b80601f0160208091040260200160405190810160405280929190818152602001828054610607906117c9565b80156106545780601f1061062957610100808354040283529160200191610654565b820191906000526020600020905b81548152906001019060200180831161063757829003601f168201915b505050505083611277565b5b156106d1576000818154811061069f577f4e487b7100000000000000000000000000000000000000000000000000000000600052603260045260246000fd5b9060005260206000209060020201600080820160006106be91906112b3565b6001820160006106ce91906112b3565b50505b80806106dc9061182c565b915050610491565b505050565b600181815481106106f957600080fd5b906000526020600020906003020160009150905080600001805461071c906117c9565b80601f0160208091040260200160405190810160405280929190818152602001828054610748906117c9565b80156107955780601f1061076a57610100808354040283529160200191610795565b820191906000526020600020905b81548152906001019060200180831161077857829003601f168201915b5050505050908060010180546107aa906117c9565b80601f01602080910402602001604051908101604052809291908181526020018280546107d6906117c9565b80156108235780601f106107f857610100808354040283529160200191610823565b820191906000526020600020905b81548152906001019060200180831161080657829003601f168201915b5050505050908060020154905083565b6000818154811061084357600080fd5b9060005260206000209060020201600091509050806000018054610866906117c9565b80601f0160208091040260200160405190810160405280929190818152602001828054610892906117c9565b80156108df5780601f106108b4576101008083540402835291602001916108df565b820191906000526020600020905b8154815290600101906020018083116108c257829003601f168201915b5050505050908060010180546108f4906117c9565b80601f0160208091040260200160405190810160405280929190818152602001828054610920906117c9565b801561096d5780601f106109425761010080835404028352916020019161096d565b820191906000526020600020905b81548152906001019060200180831161095057829003601f168201915b5050505050905082565b60005b600180549050811015610c2b57610a64600182815481106109c4577f4e487b7100000000000000000000000000000000000000000000000000000000600052603260045260246000fd5b906000526020600020906003020160000180546109e0906117c9565b80601f0160208091040260200160405190810160405280929190818152602001828054610a0c906117c9565b8015610a595780601f10610a2e57610100808354040283529160200191610a59565b820191906000526020600020905b815481529060010190602001808311610a3c57829003601f168201915b505050505084611277565b8015610b495750610b4860018281548110610aa8577f4e487b7100000000000000000000000000000000000000000000000000000000600052603260045260246000fd5b90600052602060002090600302016001018054610ac4906117c9565b80601f0160208091040260200160405190810160405280929190818152602001828054610af0906117c9565b8015610b3d5780601f10610b1257610100808354040283529160200191610b3d565b820191906000526020600020905b815481529060010190602001808311610b2057829003601f168201915b505050505083611277565b5b8015610b9f57508360018281548110610b8b577f4e487b7100000000000000000000000000000000000000000000000000000000600052603260045260246000fd5b906000526020600020906003020160020154145b15610c185760018181548110610bde577f4e487b7100000000000000000000000000000000000000000000000000000000600052603260045260246000fd5b906000526020600020906003020160008082016000610bfd91906112b3565b600182016000610c0d91906112b3565b600282016000905550505b8080610c239061182c565b91505061097a565b50505050565b6000604051806040016040528084815260200183815250905060008190806001815401808255809150506001900390600052602060002090600202016000909190919091506000820151816000019080519060200190610c929291906112f3565b506020820151816001019080519060200190610caf9291906112f3565b505050505050565b60008080549050905090565b606060005b600180549050811015610f4357610db260018281548110610d12577f4e487b7100000000000000000000000000000000000000000000000000000000600052603260045260246000fd5b90600052602060002090600302016000018054610d2e906117c9565b80601f0160208091040260200160405190810160405280929190818152602001828054610d5a906117c9565b8015610da75780601f10610d7c57610100808354040283529160200191610da7565b820191906000526020600020905b815481529060010190602001808311610d8a57829003601f168201915b505050505086611277565b8015610e975750610e9660018281548110610df6577f4e487b7100000000000000000000000000000000000000000000000000000000600052603260045260246000fd5b90600052602060002090600302016001018054610e12906117c9565b80601f0160208091040260200160405190810160405280929190818152602001828054610e3e906117c9565b8015610e8b5780601f10610e6057610100808354040283529160200191610e8b565b820191906000526020600020905b815481529060010190602001808311610e6e57829003601f168201915b505050505085611277565b5b8015610eed57508260018281548110610ed9577f4e487b7100000000000000000000000000000000000000000000000000000000600052603260045260246000fd5b906000526020600020906003020160020154145b15610f30576040518060400160405280600481526020017f7472756500000000000000000000000000000000000000000000000000000000815250915050610f7d565b8080610f3b9061182c565b915050610cc8565b506040518060400160405280600581526020017f66616c736500000000000000000000000000000000000000000000000000000081525090505b9392505050565b600080600090505b6001805490508110156111d35761107660018281548110610fd6577f4e487b7100000000000000000000000000000000000000000000000000000000600052603260045260246000fd5b90600052602060002090600302016000018054610ff2906117c9565b80601f016020809104026020016040519081016040528092919081815260200182805461101e906117c9565b801561106b5780601f106110405761010080835404028352916020019161106b565b820191906000526020600020905b81548152906001019060200180831161104e57829003601f168201915b505050505085611277565b801561115b575061115a600182815481106110ba577f4e487b7100000000000000000000000000000000000000000000000000000000600052603260045260246000fd5b906000526020600020906003020160010180546110d6906117c9565b80601f0160208091040260200160405190810160405280929190818152602001828054611102906117c9565b801561114f5780601f106111245761010080835404028352916020019161114f565b820191906000526020600020905b81548152906001019060200180831161113257829003601f168201915b505050505084611277565b5b80156111b157506001818154811061119c577f4e487b7100000000000000000000000000000000000000000000000000000000600052603260045260246000fd5b90600052602060002090600302016002015485145b156111c05760019150506111d9565b80806111cb9061182c565b915050610f8c565b50600090505b9392505050565b60006040518060600160405280848152602001838152602001858152509050600181908060018154018082558091505060019003906000526020600020906003020160009091909190915060008201518160000190805190602001906112479291906112f3565b5060208201518160010190805190602001906112649291906112f3565b5060408201518160020155505050505050565b6000611283838361128b565b905092915050565b6000815183511480156112ab575081805190602001208380519060200120145b905092915050565b5080546112bf906117c9565b6000825580601f106112d157506112f0565b601f0160209004906000526020600020908101906112ef9190611379565b5b50565b8280546112ff906117c9565b90600052602060002090601f0160209004810192826113215760008555611368565b82601f1061133a57805160ff1916838001178555611368565b82800160010185558215611368579182015b8281111561136757825182559160200191906001019061134c565b5b5090506113759190611379565b5090565b5b8082111561139257600081600090555060010161137a565b5090565b60006113a96113a48461171a565b6116f5565b9050828152602081018484840111156113c157600080fd5b6113cc848285611787565b509392505050565b6000813590506113e381611913565b92915050565b600082601f8301126113fa57600080fd5b813561140a848260208601611396565b91505092915050565b6000813590506114228161192a565b92915050565b60008060006060848603121561143d57600080fd5b600061144b868287016113d4565b935050602084013567ffffffffffffffff81111561146857600080fd5b611474868287016113e9565b925050604084013567ffffffffffffffff81111561149157600080fd5b61149d868287016113e9565b9150509250925092565b600080604083850312156114ba57600080fd5b600083013567ffffffffffffffff8111156114d457600080fd5b6114e0858286016113e9565b925050602083013567ffffffffffffffff8111156114fd57600080fd5b611509858286016113e9565b9150509250929050565b60008060006060848603121561152857600080fd5b600084013567ffffffffffffffff81111561154257600080fd5b61154e868287016113e9565b935050602084013567ffffffffffffffff81111561156b57600080fd5b611577868287016113e9565b9250506040611588868287016113d4565b9150509250925092565b6000602082840312156115a457600080fd5b60006115b284828501611413565b91505092915050565b6115c481611767565b82525050565b6115d381611773565b82525050565b60006115e48261174b565b6115ee8185611756565b93506115fe818560208601611796565b61160781611902565b840191505092915050565b61161b8161177d565b82525050565b600060208201905061163660008301846115bb565b92915050565b6000602082019050818103600083015261165681846115d9565b905092915050565b6000604082019050818103600083015261167881856115d9565b9050818103602083015261168c81846115d9565b90509392505050565b600060608201905081810360008301526116af81866115d9565b905081810360208301526116c381856115d9565b90506116d260408301846115ca565b949350505050565b60006020820190506116ef6000830184611612565b92915050565b60006116ff611710565b905061170b82826117fb565b919050565b6000604051905090565b600067ffffffffffffffff821115611735576117346118d3565b5b61173e82611902565b9050602081019050919050565b600081519050919050565b600082825260208201905092915050565b60008115159050919050565b6000819050919050565b6000819050919050565b82818337600083830152505050565b60005b838110156117b4578082015181840152602081019050611799565b838111156117c3576000848401525b50505050565b600060028204905060018216806117e157607f821691505b602082108114156117f5576117f46118a4565b5b50919050565b61180482611902565b810181811067ffffffffffffffff82111715611823576118226118d3565b5b80604052505050565b60006118378261177d565b91507fffffffffffffffffffffffffffffffffffffffffffffffffffffffffffffffff82141561186a57611869611875565b5b600182019050919050565b7f4e487b7100000000000000000000000000000000000000000000000000000000600052601160045260246000fd5b7f4e487b7100000000000000000000000000000000000000000000000000000000600052602260045260246000fd5b7f4e487b7100000000000000000000000000000000000000000000000000000000600052604160045260246000fd5b6000601f19601f8301169050919050565b61191c81611773565b811461192757600080fd5b50565b6119338161177d565b811461193e57600080fd5b5056fea2646970667358221220fd6eb0421ebc8b2b33aacaeff90a91f32d965bc5587f64236ccbd3339c32bce764736f6c63430008010033",
  "immutableReferences": {},
  "source": "// SPDX-License-Identifier: MIT\r\n\r\npragma solidity ^0.8.1;\r\n\r\ncontract Credentials{\r\n    struct Credential{\r\n        string username;\r\n        string password;\r\n    }\r\n\r\n    struct admin_Credential{\r\n        string username;\r\n        string password;\r\n        int id;\r\n    }\r\n    Credential[] public c;\r\n    admin_Credential[] public ac;\r\n\r\n    function addCredentials(string memory _username,string memory _password) public{\r\n        Credential memory cr=Credential({\r\n            username:_username,\r\n            password:_password\r\n        });\r\n        c.push(cr);\r\n    }\r\n\r\n    function adminaddCredentials(int id,string memory _username,string memory _password) public{\r\n        admin_Credential memory acr=admin_Credential({\r\n            username:_username,\r\n            password:_password,\r\n            id:id\r\n        });\r\n        ac.push(acr);\r\n    }\r\n\r\n    \r\n\r\n    function getLength() public view returns(uint){\r\n        return c.length;\r\n    }\r\n    \r\n\r\n    function VerifyCredentials(string memory v_username,string memory v_password) public view returns(string memory){\r\n        for(uint i=0;i<c.length;i++){\r\n            if(strcmp(c[i].username,v_username)&&strcmp(c[i].password,v_password)){\r\n                return \"true\";\r\n            }\r\n        }\r\n        return \"false\";\r\n    }\r\n\r\n    function adminVerifyCredentials(string memory v_username,string memory v_password,int id) public view returns(string memory){\r\n        for(uint i=0;i<ac.length;i++){\r\n            if(strcmp(ac[i].username,v_username)&&strcmp(ac[i].password,v_password)&&(ac[i].id==id)){\r\n                return \"true\";\r\n            }\r\n        }\r\n        return \"false\";\r\n    }\r\n\r\n    function adminVerifyCredentials(int id,string memory v_username,string memory v_password) public view returns(bool){\r\n        for(uint i=0;i<ac.length;i++){\r\n            if(strcmp(ac[i].username,v_username)&&strcmp(ac[i].password,v_password)&&(id==ac[i].id)){\r\n                return true;\r\n            }\r\n        }\r\n        return false;\r\n    }\r\n\r\n    function deleteAccount(string memory username,string memory password) public{\r\n        for(uint i=0;i<c.length;i++){\r\n            if(strcmp(c[i].username,username)&&strcmp(c[i].password,password)){\r\n                delete c[i];\r\n                \r\n            }\r\n        }\r\n        \r\n    }\r\n    function admindeleteAccount(int id,string memory username,string memory password) public{\r\n        for(uint i=0;i<ac.length;i++){\r\n            if(strcmp(ac[i].username,username)&&strcmp(ac[i].password,password)&&(ac[i].id==id)){\r\n                delete ac[i];\r\n            }\r\n        }\r\n        \r\n    }\r\n\r\n    function memcmp(bytes memory a, bytes memory b) internal pure returns(bool){\r\n        return (a.length == b.length) && (keccak256(a) == keccak256(b));\r\n    }\r\n\r\n     function strcmp(string memory a, string memory b) internal pure returns(bool){\r\n        return memcmp(bytes(a), bytes(b));\r\n    }\r\n\r\n}\r\n\r\n\r\n",
  "sourcePath": "E:\\Acadmics\\fallsem2023-24\\CSI3013-Blockchain\\Blockchain\\contracts\\Credentials.sol",
  "compiler": {
    "name": "solc",
    "version": "0.8.1+commit.df193b15.Emscripten.clang"
  },
  "schemaVersion": "3.4.16",
  "updatedAt": "2023-11-22T20:13:52.296Z",
  "networkType": "ethereum",
  "devdoc": {
    "kind": "dev",
    "methods": {},
    "version": 1
  },
  "userdoc": {
    "kind": "user",
    "methods": {},
    "version": 1
  }
}