{
  "contractName": "valid",
  "abi": [
    {
      "inputs": [
        {
          "internalType": "uint256",
          "name": "",
          "type": "uint256"
        }
      ],
      "name": "c",
      "outputs": [
        {
          "internalType": "string",
          "name": "name",
          "type": "string"
        },
        {
          "internalType": "string",
          "name": "id",
          "type": "string"
        },
        {
          "internalType": "string",
          "name": "course_name",
          "type": "string"
        },
        {
          "internalType": "string",
          "name": "organization",
          "type": "string"
        }
      ],
      "stateMutability": "view",
      "type": "function",
      "constant": true
    },
    {
      "inputs": [],
      "name": "messageHash",
      "outputs": [
        {
          "internalType": "bytes32",
          "name": "",
          "type": "bytes32"
        }
      ],
      "stateMutability": "view",
      "type": "function",
      "constant": true
    },
    {
      "inputs": [],
      "name": "messageHash1",
      "outputs": [
        {
          "internalType": "bytes32",
          "name": "",
          "type": "bytes32"
        }
      ],
      "stateMutability": "view",
      "type": "function",
      "constant": true
    },
    {
      "inputs": [
        {
          "internalType": "bytes32",
          "name": "",
          "type": "bytes32"
        }
      ],
      "name": "verify",
      "outputs": [
        {
          "internalType": "string",
          "name": "name",
          "type": "string"
        },
        {
          "internalType": "string",
          "name": "id",
          "type": "string"
        },
        {
          "internalType": "string",
          "name": "course_name",
          "type": "string"
        },
        {
          "internalType": "string",
          "name": "organization",
          "type": "string"
        }
      ],
      "stateMutability": "view",
      "type": "function",
      "constant": true
    },
    {
      "inputs": [
        {
          "internalType": "string",
          "name": "_name",
          "type": "string"
        },
        {
          "internalType": "string",
          "name": "_id",
          "type": "string"
        },
        {
          "internalType": "string",
          "name": "_course_name",
          "type": "string"
        },
        {
          "internalType": "string",
          "name": "_organization",
          "type": "string"
        }
      ],
      "name": "addUser",
      "outputs": [],
      "stateMutability": "nonpayable",
      "type": "function"
    },
    {
      "inputs": [
        {
          "internalType": "bytes32",
          "name": "check",
          "type": "bytes32"
        }
      ],
      "name": "validUser",
      "outputs": [
        {
          "internalType": "bool",
          "name": "",
          "type": "bool"
        }
      ],
      "stateMutability": "view",
      "type": "function",
      "constant": true
    },
    {
      "inputs": [
        {
          "internalType": "string",
          "name": "_name",
          "type": "string"
        },
        {
          "internalType": "string",
          "name": "_id",
          "type": "string"
        }
      ],
      "name": "checkUser",
      "outputs": [
        {
          "internalType": "string",
          "name": "",
          "type": "string"
        }
      ],
      "stateMutability": "nonpayable",
      "type": "function"
    },
    {
      "inputs": [
        {
          "internalType": "string",
          "name": "_name",
          "type": "string"
        },
        {
          "internalType": "string",
          "name": "_id",
          "type": "string"
        }
      ],
      "name": "deleteUser",
      "outputs": [
        {
          "internalType": "string",
          "name": "",
          "type": "string"
        }
      ],
      "stateMutability": "nonpayable",
      "type": "function"
    },
    {
      "inputs": [
        {
          "internalType": "string",
          "name": "_id",
          "type": "string"
        }
      ],
      "name": "getHash",
      "outputs": [
        {
          "internalType": "bytes32",
          "name": "",
          "type": "bytes32"
        }
      ],
      "stateMutability": "view",
      "type": "function",
      "constant": true
    },
    {
      "inputs": [
        {
          "internalType": "string",
          "name": "_id",
          "type": "string"
        }
      ],
      "name": "getName",
      "outputs": [
        {
          "internalType": "string",
          "name": "",
          "type": "string"
        }
      ],
      "stateMutability": "view",
      "type": "function",
      "constant": true
    },
    {
      "inputs": [
        {
          "internalType": "string",
          "name": "_id",
          "type": "string"
        }
      ],
      "name": "getCourse",
      "outputs": [
        {
          "internalType": "string",
          "name": "",
          "type": "string"
        }
      ],
      "stateMutability": "view",
      "type": "function",
      "constant": true
    }
  ],
  "bytecode": "0x60806040526040518060400160405280600581526020017f6c656769740000000000000000000000000000000000000000000000000000008152506006908051906020019062000051929190620000b4565b506040518060400160405280600981526020017f6e6f74206c656769740000000000000000000000000000000000000000000000815250600790805190602001906200009f929190620000b4565b50348015620000ad57600080fd5b50620001c9565b828054620000c29062000164565b90600052602060002090601f016020900481019282620000e6576000855562000132565b82601f106200010157805160ff191683800117855562000132565b8280016001018555821562000132579182015b828111156200013157825182559160200191906001019062000114565b5b50905062000141919062000145565b5090565b5b808211156200016057600081600090555060010162000146565b5090565b600060028204905060018216806200017d57607f821691505b602082108114156200019457620001936200019a565b5b50919050565b7f4e487b7100000000000000000000000000000000000000000000000000000000600052602260045260246000fd5b611c8d80620001d96000396000f3fe608060405234801561001057600080fd5b50600436106100a95760003560e01c80636932cf81116100715780636932cf811461016957806375e3661614610199578063921fb249146101cc578063b51c0b65146101fc578063b7c40bb31461022c578063da6181611461025c576100a9565b806301cda3ac146100ae57806330444017146100ca5780634f8dd50d146100e85780635b6beeb91461011b57806365e8c20d1461014b575b600080fd5b6100c860048036038101906100c391906116c3565b61028c565b005b6100d2610440565b6040516100df9190611919565b60405180910390f35b61010260048036038101906100fd9190611786565b610446565b6040516101129493929190611956565b60405180910390f35b61013560048036038101906101309190611616565b6106a6565b6040516101429190611919565b60405180910390f35b610153610882565b6040516101609190611919565b60405180910390f35b610183600480360381019061017e9190611616565b610888565b6040516101909190611934565b60405180910390f35b6101b360048036038101906101ae91906115ed565b610aaa565b6040516101c39493929190611956565b60405180910390f35b6101e660048036038101906101e191906115ed565b610cfa565b6040516101f391906118fe565b60405180910390f35b61021660048036038101906102119190611657565b610dfe565b6040516102239190611934565b60405180910390f35b61024660048036038101906102419190611657565b610f65565b6040516102539190611934565b60405180910390f35b61027660048036038101906102719190611616565b61121a565b6040516102839190611934565b60405180910390f35b60006040518060800160405280868152602001858152602001848152602001838152509050600281908060018154018082558091505060019003906000526020600020906004020160009091909190915060008201518160000190805190602001906102f9929190611478565b506020820151816001019080519060200190610316929190611478565b506040820151816002019080519060200190610333929190611478565b506060820151816003019080519060200190610350929190611478565b50505084846040516020016103669291906118b6565b604051602081830303815290604052805190602001206000819055506004600054908060018154018082558091505060019003906000526020600020016000909190919091505580600360008054815260200190815260200160002060008201518160000190805190602001906103de929190611478565b5060208201518160010190805190602001906103fb929190611478565b506040820151816002019080519060200190610418929190611478565b506060820151816003019080519060200190610435929190611478565b509050505050505050565b60005481565b6002818154811061045657600080fd5b906000526020600020906004020160009150905080600001805461047990611adf565b80601f01602080910402602001604051908101604052809291908181526020018280546104a590611adf565b80156104f25780601f106104c7576101008083540402835291602001916104f2565b820191906000526020600020905b8154815290600101906020018083116104d557829003601f168201915b50505050509080600101805461050790611adf565b80601f016020809104026020016040519081016040528092919081815260200182805461053390611adf565b80156105805780601f1061055557610100808354040283529160200191610580565b820191906000526020600020905b81548152906001019060200180831161056357829003601f168201915b50505050509080600201805461059590611adf565b80601f01602080910402602001604051908101604052809291908181526020018280546105c190611adf565b801561060e5780601f106105e35761010080835404028352916020019161060e565b820191906000526020600020905b8154815290600101906020018083116105f157829003601f168201915b50505050509080600301805461062390611adf565b80601f016020809104026020016040519081016040528092919081815260200182805461064f90611adf565b801561069c5780601f106106715761010080835404028352916020019161069c565b820191906000526020600020905b81548152906001019060200180831161067f57829003601f168201915b5050505050905084565b600080600090505b60028054905081101561087557610798600282815481106106f8577f4e487b7100000000000000000000000000000000000000000000000000000000600052603260045260246000fd5b9060005260206000209060040201600101805461071490611adf565b80601f016020809104026020016040519081016040528092919081815260200182805461074090611adf565b801561078d5780601f106107625761010080835404028352916020019161078d565b820191906000526020600020905b81548152906001019060200180831161077057829003601f168201915b50505050508461143c565b1561086257600281815481106107d7577f4e487b7100000000000000000000000000000000000000000000000000000000600052603260045260246000fd5b906000526020600020906004020160000160028281548110610822577f4e487b7100000000000000000000000000000000000000000000000000000000600052603260045260246000fd5b90600052602060002090600402016001016040516020016108449291906118da565b6040516020818303038152906040528051906020012091505061087d565b808061086d90611b42565b9150506106ae565b506000801b90505b919050565b60015481565b606060005b600280549050811015610a6b57610977600282815481106108d7577f4e487b7100000000000000000000000000000000000000000000000000000000600052603260045260246000fd5b906000526020600020906004020160010180546108f390611adf565b80601f016020809104026020016040519081016040528092919081815260200182805461091f90611adf565b801561096c5780601f106109415761010080835404028352916020019161096c565b820191906000526020600020905b81548152906001019060200180831161094f57829003601f168201915b50505050508461143c565b15610a5857600281815481106109b6577f4e487b7100000000000000000000000000000000000000000000000000000000600052603260045260246000fd5b906000526020600020906004020160000180546109d290611adf565b80601f01602080910402602001604051908101604052809291908181526020018280546109fe90611adf565b8015610a4b5780601f10610a2057610100808354040283529160200191610a4b565b820191906000526020600020905b815481529060010190602001808311610a2e57829003601f168201915b5050505050915050610aa5565b8080610a6390611b42565b91505061088d565b506040518060400160405280600481526020017f6e6f70650000000000000000000000000000000000000000000000000000000081525090505b919050565b6003602052806000526040600020600091509050806000018054610acd90611adf565b80601f0160208091040260200160405190810160405280929190818152602001828054610af990611adf565b8015610b465780601f10610b1b57610100808354040283529160200191610b46565b820191906000526020600020905b815481529060010190602001808311610b2957829003601f168201915b505050505090806001018054610b5b90611adf565b80601f0160208091040260200160405190810160405280929190818152602001828054610b8790611adf565b8015610bd45780601f10610ba957610100808354040283529160200191610bd4565b820191906000526020600020905b815481529060010190602001808311610bb757829003601f168201915b505050505090806002018054610be990611adf565b80601f0160208091040260200160405190810160405280929190818152602001828054610c1590611adf565b8015610c625780601f10610c3757610100808354040283529160200191610c62565b820191906000526020600020905b815481529060010190602001808311610c4557829003601f168201915b505050505090806003018054610c7790611adf565b80601f0160208091040260200160405190810160405280929190818152602001828054610ca390611adf565b8015610cf05780601f10610cc557610100808354040283529160200191610cf0565b820191906000526020600020905b815481529060010190602001808311610cd357829003601f168201915b5050505050905084565b600080600090505b600480549050811015610df3578260048281548110610d4a577f4e487b7100000000000000000000000000000000000000000000000000000000600052603260045260246000fd5b90600052602060002001541415610de05760005b600580549050811015610dd5578360058281548110610da6577f4e487b7100000000000000000000000000000000000000000000000000000000600052603260045260246000fd5b90600052602060002001541415610dc257600092505050610df9565b8080610dcd90611b42565b915050610d5e565b506001915050610df9565b8080610deb90611b42565b915050610d02565b50600090505b919050565b60608282604051602001610e139291906118b6565b60405160208183030381529060405280519060200120600181905550610e3a600154610cfa565b15610ed15760068054610e4c90611adf565b80601f0160208091040260200160405190810160405280929190818152602001828054610e7890611adf565b8015610ec55780601f10610e9a57610100808354040283529160200191610ec5565b820191906000526020600020905b815481529060010190602001808311610ea857829003601f168201915b50505050509050610f5f565b60078054610ede90611adf565b80601f0160208091040260200160405190810160405280929190818152602001828054610f0a90611adf565b8015610f575780601f10610f2c57610100808354040283529160200191610f57565b820191906000526020600020905b815481529060010190602001808311610f3a57829003601f168201915b505050505090505b92915050565b6060600360008484604051602001610f7e9291906118b6565b60405160208183030381529060405280519060200120815260200190815260200160002060008082016000610fb391906114fe565b600182016000610fc391906114fe565b600282016000610fd391906114fe565b600382016000610fe391906114fe565b50508282604051602001610ff89291906118b6565b6040516020818303038152906040528051906020012060008190555060005b6004805490508110156111da5760005460048281548110611061577f4e487b7100000000000000000000000000000000000000000000000000000000600052603260045260246000fd5b906000526020600020015414156111c757600460016004805490506110869190611a49565b815481106110bd577f4e487b7100000000000000000000000000000000000000000000000000000000600052603260045260246000fd5b906000526020600020015460048281548110611102577f4e487b7100000000000000000000000000000000000000000000000000000000600052603260045260246000fd5b90600052602060002001819055506004805480611148577f4e487b7100000000000000000000000000000000000000000000000000000000600052603160045260246000fd5b60019003818190600052602060002001600090559055600560005490806001815401808255809150506001900390600052602060002001600090919091909150556040518060400160405280600781526020017f64656c6574656400000000000000000000000000000000000000000000000000815250915050611214565b80806111d290611b42565b915050611017565b506040518060400160405280600b81526020017f6e6f742064656c6574656400000000000000000000000000000000000000000081525090505b92915050565b606060005b6002805490508110156113fd5761130960028281548110611269577f4e487b7100000000000000000000000000000000000000000000000000000000600052603260045260246000fd5b9060005260206000209060040201600101805461128590611adf565b80601f01602080910402602001604051908101604052809291908181526020018280546112b190611adf565b80156112fe5780601f106112d3576101008083540402835291602001916112fe565b820191906000526020600020905b8154815290600101906020018083116112e157829003601f168201915b50505050508461143c565b156113ea5760028181548110611348577f4e487b7100000000000000000000000000000000000000000000000000000000600052603260045260246000fd5b9060005260206000209060040201600201805461136490611adf565b80601f016020809104026020016040519081016040528092919081815260200182805461139090611adf565b80156113dd5780601f106113b2576101008083540402835291602001916113dd565b820191906000526020600020905b8154815290600101906020018083116113c057829003601f168201915b5050505050915050611437565b80806113f590611b42565b91505061121f565b506040518060400160405280600481526020017f6e6f70650000000000000000000000000000000000000000000000000000000081525090505b919050565b60006114488383611450565b905092915050565b600081518351148015611470575081805190602001208380519060200120145b905092915050565b82805461148490611adf565b90600052602060002090601f0160209004810192826114a657600085556114ed565b82601f106114bf57805160ff19168380011785556114ed565b828001600101855582156114ed579182015b828111156114ec5782518255916020019190600101906114d1565b5b5090506114fa919061153e565b5090565b50805461150a90611adf565b6000825580601f1061151c575061153b565b601f01602090049060005260206000209081019061153a919061153e565b5b50565b5b8082111561155757600081600090555060010161153f565b5090565b600061156e611569846119dc565b6119b7565b90508281526020810184848401111561158657600080fd5b611591848285611a9d565b509392505050565b6000813590506115a881611c29565b92915050565b600082601f8301126115bf57600080fd5b81356115cf84826020860161155b565b91505092915050565b6000813590506115e781611c40565b92915050565b6000602082840312156115ff57600080fd5b600061160d84828501611599565b91505092915050565b60006020828403121561162857600080fd5b600082013567ffffffffffffffff81111561164257600080fd5b61164e848285016115ae565b91505092915050565b6000806040838503121561166a57600080fd5b600083013567ffffffffffffffff81111561168457600080fd5b611690858286016115ae565b925050602083013567ffffffffffffffff8111156116ad57600080fd5b6116b9858286016115ae565b9150509250929050565b600080600080608085870312156116d957600080fd5b600085013567ffffffffffffffff8111156116f357600080fd5b6116ff878288016115ae565b945050602085013567ffffffffffffffff81111561171c57600080fd5b611728878288016115ae565b935050604085013567ffffffffffffffff81111561174557600080fd5b611751878288016115ae565b925050606085013567ffffffffffffffff81111561176e57600080fd5b61177a878288016115ae565b91505092959194509250565b60006020828403121561179857600080fd5b60006117a6848285016115d8565b91505092915050565b6117b881611a7d565b82525050565b6117c781611a89565b82525050565b60006117d882611a22565b6117e28185611a2d565b93506117f2818560208601611aac565b6117fb81611c18565b840191505092915050565b600061181182611a22565b61181b8185611a3e565b935061182b818560208601611aac565b80840191505092915050565b6000815461184481611adf565b61184e8186611a3e565b94506001821660008114611869576001811461187a576118ad565b60ff198316865281860193506118ad565b61188385611a0d565b60005b838110156118a557815481890152600182019150602081019050611886565b838801955050505b50505092915050565b60006118c28285611806565b91506118ce8284611806565b91508190509392505050565b60006118e68285611837565b91506118f28284611837565b91508190509392505050565b600060208201905061191360008301846117af565b92915050565b600060208201905061192e60008301846117be565b92915050565b6000602082019050818103600083015261194e81846117cd565b905092915050565b6000608082019050818103600083015261197081876117cd565b9050818103602083015261198481866117cd565b9050818103604083015261199881856117cd565b905081810360608301526119ac81846117cd565b905095945050505050565b60006119c16119d2565b90506119cd8282611b11565b919050565b6000604051905090565b600067ffffffffffffffff8211156119f7576119f6611be9565b5b611a0082611c18565b9050602081019050919050565b60008190508160005260206000209050919050565b600081519050919050565b600082825260208201905092915050565b600081905092915050565b6000611a5482611a93565b9150611a5f83611a93565b925082821015611a7257611a71611b8b565b5b828203905092915050565b60008115159050919050565b6000819050919050565b6000819050919050565b82818337600083830152505050565b60005b83811015611aca578082015181840152602081019050611aaf565b83811115611ad9576000848401525b50505050565b60006002820490506001821680611af757607f821691505b60208210811415611b0b57611b0a611bba565b5b50919050565b611b1a82611c18565b810181811067ffffffffffffffff82111715611b3957611b38611be9565b5b80604052505050565b6000611b4d82611a93565b91507fffffffffffffffffffffffffffffffffffffffffffffffffffffffffffffffff821415611b8057611b7f611b8b565b5b600182019050919050565b7f4e487b7100000000000000000000000000000000000000000000000000000000600052601160045260246000fd5b7f4e487b7100000000000000000000000000000000000000000000000000000000600052602260045260246000fd5b7f4e487b7100000000000000000000000000000000000000000000000000000000600052604160045260246000fd5b6000601f19601f8301169050919050565b611c3281611a89565b8114611c3d57600080fd5b50565b611c4981611a93565b8114611c5457600080fd5b5056fea26469706673582212208d406f8d6cfa496a8b7e90e51571e9681f95858540c5a4007103ea7f16f7fff064736f6c63430008010033",
  "immutableReferences": {},
  "source": "// SPDX-License-Identifier: MIT\r\npragma solidity ^0.8.1;\r\n\r\ncontract valid{\r\n    struct certificate{\r\n        string name;\r\n        string id;\r\n        string course_name;\r\n        string organization;\r\n    }\r\n\r\n    bytes32 public messageHash;\r\n    bytes32 public messageHash1;\r\n    certificate[] public c;\r\n\r\n    mapping(bytes32=>certificate) public verify;\r\n    bytes32[] hash;\r\n    bytes32[] delhash;\r\n\r\n    string m1=\"legit\";\r\n    string m2=\"not legit\";\r\n\r\n    function addUser(string memory _name,string memory _id,string memory _course_name\r\n    ,string memory _organization) public {\r\n        certificate memory cn=certificate({\r\n            name:_name,\r\n            id:_id,\r\n            course_name:_course_name,\r\n            organization:_organization\r\n        });\r\n\r\n        c.push(cn);\r\n\r\n        messageHash=keccak256(bytes(abi.encodePacked(_name,_id)));\r\n        hash.push(messageHash);\r\n        verify[messageHash]=cn;\r\n    }\r\n\r\n    function validUser(bytes32 check) public view returns (bool){\r\n        for(uint i=0;i<hash.length;i++){\r\n            if(hash[i] == check){\r\n                for(uint j=0;j<delhash.length;j++){\r\n                    if(delhash[j]== check){\r\n                        return false;\r\n                    }\r\n                }\r\n\r\n                return true;\r\n            }\r\n        }\r\n        return false;\r\n    }\r\n\r\n    function checkUser(string memory _name,string memory _id) public returns (string memory) {\r\n        messageHash1=keccak256(bytes(abi.encodePacked(_name,_id)));\r\n        if(validUser(messageHash1)){\r\n            return m1;\r\n        }\r\n        return m2;\r\n    }\r\n\r\n    function deleteUser(string memory _name,string memory _id) public returns (string memory) {\r\n        delete verify[keccak256(bytes(abi.encodePacked(_name,_id)))];\r\n        messageHash=(keccak256(bytes(abi.encodePacked(_name,_id))));\r\n        for(uint i=0;i<hash.length;i++){\r\n            if(hash[i] == messageHash){\r\n                hash[i]=hash[hash.length-1];\r\n                hash.pop();\r\n                delhash.push(messageHash);\r\n                return \"deleted\";\r\n            }\r\n        }\r\n        return \"not deleted\";\r\n    }\r\n\r\n    function getHash(string memory _id) public view returns (bytes32){\r\n        for(uint i=0;i<c.length;i++){\r\n            if(strcmp(c[i].id,_id)){\r\n                return keccak256(bytes(abi.encodePacked(c[i].name,c[i].id)));\r\n            }\r\n        }\r\n        return 0x0;\r\n    }\r\n\r\n    function getName(string memory _id) public view returns(string memory){\r\n        for(uint i=0;i<c.length;i++){\r\n            if(strcmp(c[i].id,_id)){\r\n                return c[i].name;\r\n            }\r\n        }\r\n        return \"nope\";\r\n    }\r\n\r\n    function getCourse(string memory _id) public view returns(string memory){\r\n        for(uint i=0;i<c.length;i++){\r\n            if(strcmp(c[i].id,_id)){\r\n                return c[i].course_name;\r\n            }\r\n        }\r\n        return \"nope\";\r\n    }\r\n\r\n    \r\n\r\n\r\n\r\n    function memcmp(bytes memory a, bytes memory b) internal pure returns(bool){\r\n        return (a.length == b.length) && (keccak256(a) == keccak256(b));\r\n    }\r\n\r\n     function strcmp(string memory a, string memory b) internal pure returns(bool){\r\n        return memcmp(bytes(a), bytes(b));\r\n    }\r\n\r\n}\r\n\r\n",
  "sourcePath": "E:\\Acadmics\\fallsem2023-24\\CSI3013-Blockchain\\Blockchain\\contracts\\valid.sol",
  "compiler": {
    "name": "solc",
    "version": "0.8.1+commit.df193b15.Emscripten.clang"
  },
  "schemaVersion": "3.4.16",
  "updatedAt": "2023-11-24T06:00:45.407Z",
  "networkType": "ethereum",
  "devdoc": {
    "kind": "dev",
    "methods": {},
    "version": 1
  },
  "userdoc": {
    "kind": "user",
    "methods": {},
    "version": 1
  }
}