{
  "contractName": "valid",
  "abi": [
    {
      "inputs": [
        {
          "internalType": "uint256",
          "name": "",
          "type": "uint256"
        }
      ],
      "name": "c",
      "outputs": [
        {
          "internalType": "string",
          "name": "name",
          "type": "string"
        },
        {
          "internalType": "string",
          "name": "id",
          "type": "string"
        },
        {
          "internalType": "string",
          "name": "course_name",
          "type": "string"
        },
        {
          "internalType": "string",
          "name": "organization",
          "type": "string"
        }
      ],
      "stateMutability": "view",
      "type": "function",
      "constant": true
    },
    {
      "inputs": [],
      "name": "messageHash",
      "outputs": [
        {
          "internalType": "bytes32",
          "name": "",
          "type": "bytes32"
        }
      ],
      "stateMutability": "view",
      "type": "function",
      "constant": true
    },
    {
      "inputs": [],
      "name": "messageHash1",
      "outputs": [
        {
          "internalType": "bytes32",
          "name": "",
          "type": "bytes32"
        }
      ],
      "stateMutability": "view",
      "type": "function",
      "constant": true
    },
    {
      "inputs": [
        {
          "internalType": "bytes32",
          "name": "",
          "type": "bytes32"
        }
      ],
      "name": "verify",
      "outputs": [
        {
          "internalType": "string",
          "name": "name",
          "type": "string"
        },
        {
          "internalType": "string",
          "name": "id",
          "type": "string"
        },
        {
          "internalType": "string",
          "name": "course_name",
          "type": "string"
        },
        {
          "internalType": "string",
          "name": "organization",
          "type": "string"
        }
      ],
      "stateMutability": "view",
      "type": "function",
      "constant": true
    },
    {
      "inputs": [
        {
          "internalType": "string",
          "name": "_name",
          "type": "string"
        },
        {
          "internalType": "string",
          "name": "_id",
          "type": "string"
        },
        {
          "internalType": "string",
          "name": "_course_name",
          "type": "string"
        },
        {
          "internalType": "string",
          "name": "_organization",
          "type": "string"
        }
      ],
      "name": "addUser",
      "outputs": [],
      "stateMutability": "nonpayable",
      "type": "function"
    },
    {
      "inputs": [
        {
          "internalType": "bytes32",
          "name": "check",
          "type": "bytes32"
        }
      ],
      "name": "validUser",
      "outputs": [
        {
          "internalType": "bool",
          "name": "",
          "type": "bool"
        }
      ],
      "stateMutability": "view",
      "type": "function",
      "constant": true
    },
    {
      "inputs": [
        {
          "internalType": "string",
          "name": "_name",
          "type": "string"
        },
        {
          "internalType": "string",
          "name": "_id",
          "type": "string"
        }
      ],
      "name": "checkUser",
      "outputs": [
        {
          "internalType": "string",
          "name": "",
          "type": "string"
        }
      ],
      "stateMutability": "nonpayable",
      "type": "function"
    },
    {
      "inputs": [
        {
          "internalType": "string",
          "name": "_name",
          "type": "string"
        },
        {
          "internalType": "string",
          "name": "_id",
          "type": "string"
        }
      ],
      "name": "deleteUser",
      "outputs": [
        {
          "internalType": "string",
          "name": "",
          "type": "string"
        }
      ],
      "stateMutability": "nonpayable",
      "type": "function"
    }
  ],
  "bytecode": "0x60806040526040518060400160405280600581526020017f6c656769740000000000000000000000000000000000000000000000000000008152506006908051906020019062000051929190620000b4565b506040518060400160405280600981526020017f6e6f74206c656769740000000000000000000000000000000000000000000000815250600790805190602001906200009f929190620000b4565b50348015620000ad57600080fd5b50620001c9565b828054620000c29062000164565b90600052602060002090601f016020900481019282620000e6576000855562000132565b82601f106200010157805160ff191683800117855562000132565b8280016001018555821562000132579182015b828111156200013157825182559160200191906001019062000114565b5b50905062000141919062000145565b5090565b5b808211156200016057600081600090555060010162000146565b5090565b600060028204905060018216806200017d57607f821691505b602082108114156200019457620001936200019a565b5b50919050565b7f4e487b7100000000000000000000000000000000000000000000000000000000600052602260045260246000fd5b61148780620001d96000396000f3fe608060405234801561001057600080fd5b50600436106100885760003560e01c806375e366161161005b57806375e3661614610118578063921fb2491461014b578063b51c0b651461017b578063b7c40bb3146101ab57610088565b806301cda3ac1461008d57806330444017146100a95780634f8dd50d146100c757806365e8c20d146100fa575b600080fd5b6100a760048036038101906100a29190610f75565b6101db565b005b6100b161038f565b6040516100be9190611128565b60405180910390f35b6100e160048036038101906100dc9190611038565b610395565b6040516100f19493929190611165565b60405180910390f35b6101026105f5565b60405161010f9190611128565b60405180910390f35b610132600480360381019061012d9190610ee0565b6105fb565b6040516101429493929190611165565b60405180910390f35b61016560048036038101906101609190610ee0565b61084b565b604051610172919061110d565b60405180910390f35b61019560048036038101906101909190610f09565b61094f565b6040516101a29190611143565b60405180910390f35b6101c560048036038101906101c09190610f09565b610ab6565b6040516101d29190611143565b60405180910390f35b6000604051806080016040528086815260200185815260200184815260200183815250905060028190806001815401808255809150506001900390600052602060002090600402016000909190919091506000820151816000019080519060200190610248929190610d6b565b506020820151816001019080519060200190610265929190610d6b565b506040820151816002019080519060200190610282929190610d6b565b50606082015181600301908051906020019061029f929190610d6b565b50505084846040516020016102b59291906110e9565b6040516020818303038152906040528051906020012060008190555060046000549080600181540180825580915050600190039060005260206000200160009091909190915055806003600080548152602001908152602001600020600082015181600001908051906020019061032d929190610d6b565b50602082015181600101908051906020019061034a929190610d6b565b506040820151816002019080519060200190610367929190610d6b565b506060820151816003019080519060200190610384929190610d6b565b509050505050505050565b60005481565b600281815481106103a557600080fd5b90600052602060002090600402016000915090508060000180546103c8906112d9565b80601f01602080910402602001604051908101604052809291908181526020018280546103f4906112d9565b80156104415780601f1061041657610100808354040283529160200191610441565b820191906000526020600020905b81548152906001019060200180831161042457829003601f168201915b505050505090806001018054610456906112d9565b80601f0160208091040260200160405190810160405280929190818152602001828054610482906112d9565b80156104cf5780601f106104a4576101008083540402835291602001916104cf565b820191906000526020600020905b8154815290600101906020018083116104b257829003601f168201915b5050505050908060020180546104e4906112d9565b80601f0160208091040260200160405190810160405280929190818152602001828054610510906112d9565b801561055d5780601f106105325761010080835404028352916020019161055d565b820191906000526020600020905b81548152906001019060200180831161054057829003601f168201915b505050505090806003018054610572906112d9565b80601f016020809104026020016040519081016040528092919081815260200182805461059e906112d9565b80156105eb5780601f106105c0576101008083540402835291602001916105eb565b820191906000526020600020905b8154815290600101906020018083116105ce57829003601f168201915b5050505050905084565b60015481565b600360205280600052604060002060009150905080600001805461061e906112d9565b80601f016020809104026020016040519081016040528092919081815260200182805461064a906112d9565b80156106975780601f1061066c57610100808354040283529160200191610697565b820191906000526020600020905b81548152906001019060200180831161067a57829003601f168201915b5050505050908060010180546106ac906112d9565b80601f01602080910402602001604051908101604052809291908181526020018280546106d8906112d9565b80156107255780601f106106fa57610100808354040283529160200191610725565b820191906000526020600020905b81548152906001019060200180831161070857829003601f168201915b50505050509080600201805461073a906112d9565b80601f0160208091040260200160405190810160405280929190818152602001828054610766906112d9565b80156107b35780601f10610788576101008083540402835291602001916107b3565b820191906000526020600020905b81548152906001019060200180831161079657829003601f168201915b5050505050908060030180546107c8906112d9565b80601f01602080910402602001604051908101604052809291908181526020018280546107f4906112d9565b80156108415780601f1061081657610100808354040283529160200191610841565b820191906000526020600020905b81548152906001019060200180831161082457829003601f168201915b5050505050905084565b600080600090505b60048054905081101561094457826004828154811061089b577f4e487b7100000000000000000000000000000000000000000000000000000000600052603260045260246000fd5b906000526020600020015414156109315760005b6005805490508110156109265783600582815481106108f7577f4e487b7100000000000000000000000000000000000000000000000000000000600052603260045260246000fd5b906000526020600020015414156109135760009250505061094a565b808061091e9061133c565b9150506108af565b50600191505061094a565b808061093c9061133c565b915050610853565b50600090505b919050565b606082826040516020016109649291906110e9565b6040516020818303038152906040528051906020012060018190555061098b60015461084b565b15610a22576006805461099d906112d9565b80601f01602080910402602001604051908101604052809291908181526020018280546109c9906112d9565b8015610a165780601f106109eb57610100808354040283529160200191610a16565b820191906000526020600020905b8154815290600101906020018083116109f957829003601f168201915b50505050509050610ab0565b60078054610a2f906112d9565b80601f0160208091040260200160405190810160405280929190818152602001828054610a5b906112d9565b8015610aa85780601f10610a7d57610100808354040283529160200191610aa8565b820191906000526020600020905b815481529060010190602001808311610a8b57829003601f168201915b505050505090505b92915050565b6060600360008484604051602001610acf9291906110e9565b60405160208183030381529060405280519060200120815260200190815260200160002060008082016000610b049190610df1565b600182016000610b149190610df1565b600282016000610b249190610df1565b600382016000610b349190610df1565b50508282604051602001610b499291906110e9565b6040516020818303038152906040528051906020012060008190555060005b600480549050811015610d2b5760005460048281548110610bb2577f4e487b7100000000000000000000000000000000000000000000000000000000600052603260045260246000fd5b90600052602060002001541415610d185760046001600480549050610bd79190611243565b81548110610c0e577f4e487b7100000000000000000000000000000000000000000000000000000000600052603260045260246000fd5b906000526020600020015460048281548110610c53577f4e487b7100000000000000000000000000000000000000000000000000000000600052603260045260246000fd5b90600052602060002001819055506004805480610c99577f4e487b7100000000000000000000000000000000000000000000000000000000600052603160045260246000fd5b60019003818190600052602060002001600090559055600560005490806001815401808255809150506001900390600052602060002001600090919091909150556040518060400160405280600781526020017f64656c6574656400000000000000000000000000000000000000000000000000815250915050610d65565b8080610d239061133c565b915050610b68565b506040518060400160405280600b81526020017f6e6f742064656c6574656400000000000000000000000000000000000000000081525090505b92915050565b828054610d77906112d9565b90600052602060002090601f016020900481019282610d995760008555610de0565b82601f10610db257805160ff1916838001178555610de0565b82800160010185558215610de0579182015b82811115610ddf578251825591602001919060010190610dc4565b5b509050610ded9190610e31565b5090565b508054610dfd906112d9565b6000825580601f10610e0f5750610e2e565b601f016020900490600052602060002090810190610e2d9190610e31565b5b50565b5b80821115610e4a576000816000905550600101610e32565b5090565b6000610e61610e5c846111eb565b6111c6565b905082815260208101848484011115610e7957600080fd5b610e84848285611297565b509392505050565b600081359050610e9b81611423565b92915050565b600082601f830112610eb257600080fd5b8135610ec2848260208601610e4e565b91505092915050565b600081359050610eda8161143a565b92915050565b600060208284031215610ef257600080fd5b6000610f0084828501610e8c565b91505092915050565b60008060408385031215610f1c57600080fd5b600083013567ffffffffffffffff811115610f3657600080fd5b610f4285828601610ea1565b925050602083013567ffffffffffffffff811115610f5f57600080fd5b610f6b85828601610ea1565b9150509250929050565b60008060008060808587031215610f8b57600080fd5b600085013567ffffffffffffffff811115610fa557600080fd5b610fb187828801610ea1565b945050602085013567ffffffffffffffff811115610fce57600080fd5b610fda87828801610ea1565b935050604085013567ffffffffffffffff811115610ff757600080fd5b61100387828801610ea1565b925050606085013567ffffffffffffffff81111561102057600080fd5b61102c87828801610ea1565b91505092959194509250565b60006020828403121561104a57600080fd5b600061105884828501610ecb565b91505092915050565b61106a81611277565b82525050565b61107981611283565b82525050565b600061108a8261121c565b6110948185611227565b93506110a48185602086016112a6565b6110ad81611412565b840191505092915050565b60006110c38261121c565b6110cd8185611238565b93506110dd8185602086016112a6565b80840191505092915050565b60006110f582856110b8565b915061110182846110b8565b91508190509392505050565b60006020820190506111226000830184611061565b92915050565b600060208201905061113d6000830184611070565b92915050565b6000602082019050818103600083015261115d818461107f565b905092915050565b6000608082019050818103600083015261117f818761107f565b90508181036020830152611193818661107f565b905081810360408301526111a7818561107f565b905081810360608301526111bb818461107f565b905095945050505050565b60006111d06111e1565b90506111dc828261130b565b919050565b6000604051905090565b600067ffffffffffffffff821115611206576112056113e3565b5b61120f82611412565b9050602081019050919050565b600081519050919050565b600082825260208201905092915050565b600081905092915050565b600061124e8261128d565b91506112598361128d565b92508282101561126c5761126b611385565b5b828203905092915050565b60008115159050919050565b6000819050919050565b6000819050919050565b82818337600083830152505050565b60005b838110156112c45780820151818401526020810190506112a9565b838111156112d3576000848401525b50505050565b600060028204905060018216806112f157607f821691505b60208210811415611305576113046113b4565b5b50919050565b61131482611412565b810181811067ffffffffffffffff82111715611333576113326113e3565b5b80604052505050565b60006113478261128d565b91507fffffffffffffffffffffffffffffffffffffffffffffffffffffffffffffffff82141561137a57611379611385565b5b600182019050919050565b7f4e487b7100000000000000000000000000000000000000000000000000000000600052601160045260246000fd5b7f4e487b7100000000000000000000000000000000000000000000000000000000600052602260045260246000fd5b7f4e487b7100000000000000000000000000000000000000000000000000000000600052604160045260246000fd5b6000601f19601f8301169050919050565b61142c81611283565b811461143757600080fd5b50565b6114438161128d565b811461144e57600080fd5b5056fea2646970667358221220eb06ce89edd51ab7930475766c41c9bdbf8307315c4d07116158f48217db88d064736f6c63430008010033",
  "immutableReferences": {},
  "source": "// SPDX-License-Identifier: MIT\r\npragma solidity ^0.8.1;\r\n\r\ncontract valid{\r\n    struct certificate{\r\n        string name;\r\n        string id;\r\n        string course_name;\r\n        string organization;\r\n    }\r\n\r\n    bytes32 public messageHash;\r\n    bytes32 public messageHash1;\r\n    certificate[] public c;\r\n\r\n    mapping(bytes32=>certificate) public verify;\r\n    bytes32[] hash;\r\n    bytes32[] delhash;\r\n\r\n    string m1=\"legit\";\r\n    string m2=\"not legit\";\r\n\r\n    function addUser(string memory _name,string memory _id,string memory _course_name\r\n    ,string memory _organization) public {\r\n        certificate memory cn=certificate({\r\n            name:_name,\r\n            id:_id,\r\n            course_name:_course_name,\r\n            organization:_organization\r\n        });\r\n\r\n        c.push(cn);\r\n\r\n        messageHash=keccak256(bytes(abi.encodePacked(_name,_id)));\r\n        hash.push(messageHash);\r\n        verify[messageHash]=cn;\r\n    }\r\n\r\n    function validUser(bytes32 check) public view returns (bool){\r\n        for(uint i=0;i<hash.length;i++){\r\n            if(hash[i] == check){\r\n                for(uint j=0;j<delhash.length;j++){\r\n                    if(delhash[j]== check){\r\n                        return false;\r\n                    }\r\n                }\r\n\r\n                return true;\r\n            }\r\n        }\r\n        return false;\r\n    }\r\n\r\n    function checkUser(string memory _name,string memory _id) public returns (string memory) {\r\n        messageHash1=keccak256(bytes(abi.encodePacked(_name,_id)));\r\n        if(validUser(messageHash1)){\r\n            return m1;\r\n        }\r\n        return m2;\r\n    }\r\n\r\n    function deleteUser(string memory _name,string memory _id) public returns (string memory) {\r\n        delete verify[keccak256(bytes(abi.encodePacked(_name,_id)))];\r\n        messageHash=(keccak256(bytes(abi.encodePacked(_name,_id))));\r\n        for(uint i=0;i<hash.length;i++){\r\n            if(hash[i] == messageHash){\r\n                hash[i]=hash[hash.length-1];\r\n                hash.pop();\r\n                delhash.push(messageHash);\r\n                return \"deleted\";\r\n            }\r\n        }\r\n        return \"not deleted\";\r\n    }\r\n\r\n}\r\n\r\n",
  "sourcePath": "E:\\Acadmics\\fallsem2023-24\\CSI3013-Blockchain\\Blockchain\\contracts\\valid.sol",
  "compiler": {
    "name": "solc",
    "version": "0.8.1+commit.df193b15.Emscripten.clang"
  },
  "schemaVersion": "3.4.16",
  "updatedAt": "2023-11-23T06:47:06.384Z",
  "networkType": "ethereum",
  "devdoc": {
    "kind": "dev",
    "methods": {},
    "version": 1
  },
  "userdoc": {
    "kind": "user",
    "methods": {},
    "version": 1
  }
}