{
  "contractName": "valid",
  "abi": [
    {
      "inputs": [
        {
          "internalType": "uint256",
          "name": "",
          "type": "uint256"
        }
      ],
      "name": "c",
      "outputs": [
        {
          "internalType": "string",
          "name": "name",
          "type": "string"
        },
        {
          "internalType": "string",
          "name": "id",
          "type": "string"
        },
        {
          "internalType": "int256",
          "name": "expiration_date",
          "type": "int256"
        },
        {
          "internalType": "string",
          "name": "course_name",
          "type": "string"
        },
        {
          "internalType": "string",
          "name": "organization",
          "type": "string"
        }
      ],
      "stateMutability": "view",
      "type": "function",
      "constant": true
    },
    {
      "inputs": [],
      "name": "messageHash",
      "outputs": [
        {
          "internalType": "bytes32",
          "name": "",
          "type": "bytes32"
        }
      ],
      "stateMutability": "view",
      "type": "function",
      "constant": true
    },
    {
      "inputs": [],
      "name": "messageHash1",
      "outputs": [
        {
          "internalType": "bytes32",
          "name": "",
          "type": "bytes32"
        }
      ],
      "stateMutability": "view",
      "type": "function",
      "constant": true
    },
    {
      "inputs": [
        {
          "internalType": "bytes32",
          "name": "",
          "type": "bytes32"
        }
      ],
      "name": "verify",
      "outputs": [
        {
          "internalType": "string",
          "name": "name",
          "type": "string"
        },
        {
          "internalType": "string",
          "name": "id",
          "type": "string"
        },
        {
          "internalType": "int256",
          "name": "expiration_date",
          "type": "int256"
        },
        {
          "internalType": "string",
          "name": "course_name",
          "type": "string"
        },
        {
          "internalType": "string",
          "name": "organization",
          "type": "string"
        }
      ],
      "stateMutability": "view",
      "type": "function",
      "constant": true
    },
    {
      "inputs": [
        {
          "internalType": "string",
          "name": "_name",
          "type": "string"
        },
        {
          "internalType": "string",
          "name": "_id",
          "type": "string"
        },
        {
          "internalType": "int256",
          "name": "date",
          "type": "int256"
        },
        {
          "internalType": "string",
          "name": "_course_name",
          "type": "string"
        },
        {
          "internalType": "string",
          "name": "_organization",
          "type": "string"
        }
      ],
      "name": "addUser",
      "outputs": [],
      "stateMutability": "nonpayable",
      "type": "function"
    },
    {
      "inputs": [
        {
          "internalType": "bytes32",
          "name": "check",
          "type": "bytes32"
        }
      ],
      "name": "validUser",
      "outputs": [
        {
          "internalType": "bool",
          "name": "",
          "type": "bool"
        }
      ],
      "stateMutability": "view",
      "type": "function",
      "constant": true
    },
    {
      "inputs": [
        {
          "internalType": "string",
          "name": "_name",
          "type": "string"
        },
        {
          "internalType": "string",
          "name": "_id",
          "type": "string"
        }
      ],
      "name": "checkUser",
      "outputs": [
        {
          "internalType": "string",
          "name": "",
          "type": "string"
        }
      ],
      "stateMutability": "nonpayable",
      "type": "function"
    },
    {
      "inputs": [
        {
          "internalType": "string",
          "name": "_name",
          "type": "string"
        },
        {
          "internalType": "string",
          "name": "_id",
          "type": "string"
        }
      ],
      "name": "deleteUser",
      "outputs": [
        {
          "internalType": "string",
          "name": "",
          "type": "string"
        }
      ],
      "stateMutability": "nonpayable",
      "type": "function"
    }
  ],
  "bytecode": "0x60806040526040518060400160405280600581526020017f6c656769740000000000000000000000000000000000000000000000000000008152506006908051906020019062000051929190620000b4565b506040518060400160405280600981526020017f6e6f74206c656769740000000000000000000000000000000000000000000000815250600790805190602001906200009f929190620000b4565b50348015620000ad57600080fd5b50620001c9565b828054620000c29062000164565b90600052602060002090601f016020900481019282620000e6576000855562000132565b82601f106200010157805160ff191683800117855562000132565b8280016001018555821562000132579182015b828111156200013157825182559160200191906001019062000114565b5b50905062000141919062000145565b5090565b5b808211156200016057600081600090555060010162000146565b5090565b600060028204905060018216806200017d57607f821691505b602082108114156200019457620001936200019a565b5b50919050565b7f4e487b7100000000000000000000000000000000000000000000000000000000600052602260045260246000fd5b61151f80620001d96000396000f3fe608060405234801561001057600080fd5b50600436106100885760003560e01c806375e366161161005b57806375e3661614610119578063921fb2491461014d578063b51c0b651461017d578063b7c40bb3146101ad57610088565b8063304440171461008d5780634f8dd50d146100ab57806365e8c20d146100df5780636c01c759146100fd575b600080fd5b6100956101dd565b6040516100a29190611191565b60405180910390f35b6100c560048036038101906100c09190611092565b6101e3565b6040516100d69594939291906111ce565b60405180910390f35b6100e7610449565b6040516100f49190611191565b60405180910390f35b61011760048036038101906101129190610fbb565b61044f565b005b610133600480360381019061012e9190610f26565b61061e565b6040516101449594939291906111ce565b60405180910390f35b61016760048036038101906101629190610f26565b610874565b6040516101749190611176565b60405180910390f35b61019760048036038101906101929190610f4f565b610978565b6040516101a491906111ac565b60405180910390f35b6101c760048036038101906101c29190610f4f565b610adf565b6040516101d491906111ac565b60405180910390f35b60005481565b600281815481106101f357600080fd5b90600052602060002090600502016000915090508060000180546102169061135a565b80601f01602080910402602001604051908101604052809291908181526020018280546102429061135a565b801561028f5780601f106102645761010080835404028352916020019161028f565b820191906000526020600020905b81548152906001019060200180831161027257829003601f168201915b5050505050908060010180546102a49061135a565b80601f01602080910402602001604051908101604052809291908181526020018280546102d09061135a565b801561031d5780601f106102f25761010080835404028352916020019161031d565b820191906000526020600020905b81548152906001019060200180831161030057829003601f168201915b5050505050908060020154908060030180546103389061135a565b80601f01602080910402602001604051908101604052809291908181526020018280546103649061135a565b80156103b15780601f10610386576101008083540402835291602001916103b1565b820191906000526020600020905b81548152906001019060200180831161039457829003601f168201915b5050505050908060040180546103c69061135a565b80601f01602080910402602001604051908101604052809291908181526020018280546103f29061135a565b801561043f5780601f106104145761010080835404028352916020019161043f565b820191906000526020600020905b81548152906001019060200180831161042257829003601f168201915b5050505050905085565b60015481565b60006040518060a00160405280878152602001868152602001858152602001848152602001838152509050600281908060018154018082558091505060019003906000526020600020906005020160009091909190915060008201518160000190805190602001906104c2929190610d9c565b5060208201518160010190805190602001906104df929190610d9c565b50604082015181600201556060820151816003019080519060200190610506929190610d9c565b506080820151816004019080519060200190610523929190610d9c565b5050508585604051602001610539929190611152565b604051602081830303815290604052805190602001206000819055506004600054908060018154018082558091505060019003906000526020600020016000909190919091505580600360008054815260200190815260200160002060008201518160000190805190602001906105b1929190610d9c565b5060208201518160010190805190602001906105ce929190610d9c565b506040820151816002015560608201518160030190805190602001906105f5929190610d9c565b506080820151816004019080519060200190610612929190610d9c565b50905050505050505050565b60036020528060005260406000206000915090508060000180546106419061135a565b80601f016020809104026020016040519081016040528092919081815260200182805461066d9061135a565b80156106ba5780601f1061068f576101008083540402835291602001916106ba565b820191906000526020600020905b81548152906001019060200180831161069d57829003601f168201915b5050505050908060010180546106cf9061135a565b80601f01602080910402602001604051908101604052809291908181526020018280546106fb9061135a565b80156107485780601f1061071d57610100808354040283529160200191610748565b820191906000526020600020905b81548152906001019060200180831161072b57829003601f168201915b5050505050908060020154908060030180546107639061135a565b80601f016020809104026020016040519081016040528092919081815260200182805461078f9061135a565b80156107dc5780601f106107b1576101008083540402835291602001916107dc565b820191906000526020600020905b8154815290600101906020018083116107bf57829003601f168201915b5050505050908060040180546107f19061135a565b80601f016020809104026020016040519081016040528092919081815260200182805461081d9061135a565b801561086a5780601f1061083f5761010080835404028352916020019161086a565b820191906000526020600020905b81548152906001019060200180831161084d57829003601f168201915b5050505050905085565b600080600090505b60048054905081101561096d5782600482815481106108c4577f4e487b7100000000000000000000000000000000000000000000000000000000600052603260045260246000fd5b9060005260206000200154141561095a5760005b60058054905081101561094f578360058281548110610920577f4e487b7100000000000000000000000000000000000000000000000000000000600052603260045260246000fd5b9060005260206000200154141561093c57600092505050610973565b8080610947906113bd565b9150506108d8565b506001915050610973565b8080610965906113bd565b91505061087c565b50600090505b919050565b6060828260405160200161098d929190611152565b604051602081830303815290604052805190602001206001819055506109b4600154610874565b15610a4b57600680546109c69061135a565b80601f01602080910402602001604051908101604052809291908181526020018280546109f29061135a565b8015610a3f5780601f10610a1457610100808354040283529160200191610a3f565b820191906000526020600020905b815481529060010190602001808311610a2257829003601f168201915b50505050509050610ad9565b60078054610a589061135a565b80601f0160208091040260200160405190810160405280929190818152602001828054610a849061135a565b8015610ad15780601f10610aa657610100808354040283529160200191610ad1565b820191906000526020600020905b815481529060010190602001808311610ab457829003601f168201915b505050505090505b92915050565b6060600360008484604051602001610af8929190611152565b60405160208183030381529060405280519060200120815260200190815260200160002060008082016000610b2d9190610e22565b600182016000610b3d9190610e22565b6002820160009055600382016000610b559190610e22565b600482016000610b659190610e22565b50508282604051602001610b7a929190611152565b6040516020818303038152906040528051906020012060008190555060005b600480549050811015610d5c5760005460048281548110610be3577f4e487b7100000000000000000000000000000000000000000000000000000000600052603260045260246000fd5b90600052602060002001541415610d495760046001600480549050610c0891906112ba565b81548110610c3f577f4e487b7100000000000000000000000000000000000000000000000000000000600052603260045260246000fd5b906000526020600020015460048281548110610c84577f4e487b7100000000000000000000000000000000000000000000000000000000600052603260045260246000fd5b90600052602060002001819055506004805480610cca577f4e487b7100000000000000000000000000000000000000000000000000000000600052603160045260246000fd5b60019003818190600052602060002001600090559055600560005490806001815401808255809150506001900390600052602060002001600090919091909150556040518060400160405280600781526020017f64656c6574656400000000000000000000000000000000000000000000000000815250915050610d96565b8080610d54906113bd565b915050610b99565b506040518060400160405280600b81526020017f6e6f742064656c6574656400000000000000000000000000000000000000000081525090505b92915050565b828054610da89061135a565b90600052602060002090601f016020900481019282610dca5760008555610e11565b82601f10610de357805160ff1916838001178555610e11565b82800160010185558215610e11579182015b82811115610e10578251825591602001919060010190610df5565b5b509050610e1e9190610e62565b5090565b508054610e2e9061135a565b6000825580601f10610e405750610e5f565b601f016020900490600052602060002090810190610e5e9190610e62565b5b50565b5b80821115610e7b576000816000905550600101610e63565b5090565b6000610e92610e8d84611262565b61123d565b905082815260208101848484011115610eaa57600080fd5b610eb5848285611318565b509392505050565b600081359050610ecc816114a4565b92915050565b600081359050610ee1816114bb565b92915050565b600082601f830112610ef857600080fd5b8135610f08848260208601610e7f565b91505092915050565b600081359050610f20816114d2565b92915050565b600060208284031215610f3857600080fd5b6000610f4684828501610ebd565b91505092915050565b60008060408385031215610f6257600080fd5b600083013567ffffffffffffffff811115610f7c57600080fd5b610f8885828601610ee7565b925050602083013567ffffffffffffffff811115610fa557600080fd5b610fb185828601610ee7565b9150509250929050565b600080600080600060a08688031215610fd357600080fd5b600086013567ffffffffffffffff811115610fed57600080fd5b610ff988828901610ee7565b955050602086013567ffffffffffffffff81111561101657600080fd5b61102288828901610ee7565b945050604061103388828901610ed2565b935050606086013567ffffffffffffffff81111561105057600080fd5b61105c88828901610ee7565b925050608086013567ffffffffffffffff81111561107957600080fd5b61108588828901610ee7565b9150509295509295909350565b6000602082840312156110a457600080fd5b60006110b284828501610f11565b91505092915050565b6110c4816112ee565b82525050565b6110d3816112fa565b82525050565b6110e281611304565b82525050565b60006110f382611293565b6110fd818561129e565b935061110d818560208601611327565b61111681611493565b840191505092915050565b600061112c82611293565b61113681856112af565b9350611146818560208601611327565b80840191505092915050565b600061115e8285611121565b915061116a8284611121565b91508190509392505050565b600060208201905061118b60008301846110bb565b92915050565b60006020820190506111a660008301846110ca565b92915050565b600060208201905081810360008301526111c681846110e8565b905092915050565b600060a08201905081810360008301526111e881886110e8565b905081810360208301526111fc81876110e8565b905061120b60408301866110d9565b818103606083015261121d81856110e8565b9050818103608083015261123181846110e8565b90509695505050505050565b6000611247611258565b9050611253828261138c565b919050565b6000604051905090565b600067ffffffffffffffff82111561127d5761127c611464565b5b61128682611493565b9050602081019050919050565b600081519050919050565b600082825260208201905092915050565b600081905092915050565b60006112c58261130e565b91506112d08361130e565b9250828210156112e3576112e2611406565b5b828203905092915050565b60008115159050919050565b6000819050919050565b6000819050919050565b6000819050919050565b82818337600083830152505050565b60005b8381101561134557808201518184015260208101905061132a565b83811115611354576000848401525b50505050565b6000600282049050600182168061137257607f821691505b6020821081141561138657611385611435565b5b50919050565b61139582611493565b810181811067ffffffffffffffff821117156113b4576113b3611464565b5b80604052505050565b60006113c88261130e565b91507fffffffffffffffffffffffffffffffffffffffffffffffffffffffffffffffff8214156113fb576113fa611406565b5b600182019050919050565b7f4e487b7100000000000000000000000000000000000000000000000000000000600052601160045260246000fd5b7f4e487b7100000000000000000000000000000000000000000000000000000000600052602260045260246000fd5b7f4e487b7100000000000000000000000000000000000000000000000000000000600052604160045260246000fd5b6000601f19601f8301169050919050565b6114ad816112fa565b81146114b857600080fd5b50565b6114c481611304565b81146114cf57600080fd5b50565b6114db8161130e565b81146114e657600080fd5b5056fea26469706673582212205fe86dfa6abecf0deadb4466dfe607d42ebd031e7da408fcf703ec6da95c5f7764736f6c63430008010033",
  "immutableReferences": {},
  "source": "// SPDX-License-Identifier: MIT\r\npragma solidity ^0.8.1;\r\n\r\ncontract valid{\r\n    struct certificate{\r\n        string name;\r\n        string id;\r\n        int expiration_date;\r\n        string course_name;\r\n        string organization;\r\n    }\r\n\r\n    bytes32 public messageHash;\r\n    bytes32 public messageHash1;\r\n    certificate[] public c;\r\n\r\n    mapping(bytes32=>certificate) public verify;\r\n    bytes32[] hash;\r\n    bytes32[] delhash;\r\n\r\n    string m1=\"legit\";\r\n    string m2=\"not legit\";\r\n\r\n    function addUser(string memory _name,string memory _id,int date,string memory _course_name\r\n    ,string memory _organization) public {\r\n        certificate memory cn=certificate({\r\n            name:_name,\r\n            id:_id,\r\n            expiration_date:date,\r\n            course_name:_course_name,\r\n            organization:_organization\r\n        });\r\n\r\n        c.push(cn);\r\n\r\n        messageHash=keccak256(bytes(abi.encodePacked(_name,_id)));\r\n        hash.push(messageHash);\r\n        verify[messageHash]=cn;\r\n    }\r\n\r\n    function validUser(bytes32 check) public view returns (bool){\r\n        for(uint i=0;i<hash.length;i++){\r\n            if(hash[i] == check){\r\n                for(uint j=0;j<delhash.length;j++){\r\n                    if(delhash[j]== check){\r\n                        return false;\r\n                    }\r\n                }\r\n\r\n                return true;\r\n            }\r\n        }\r\n        return false;\r\n    }\r\n\r\n    function checkUser(string memory _name,string memory _id) public returns (string memory) {\r\n        messageHash1=keccak256(bytes(abi.encodePacked(_name,_id)));\r\n        if(validUser(messageHash1)){\r\n            return m1;\r\n        }\r\n        return m2;\r\n    }\r\n\r\n    function deleteUser(string memory _name,string memory _id) public returns (string memory) {\r\n        delete verify[keccak256(bytes(abi.encodePacked(_name,_id)))];\r\n        messageHash=(keccak256(bytes(abi.encodePacked(_name,_id))));\r\n        for(uint i=0;i<hash.length;i++){\r\n            if(hash[i]==messageHash){\r\n                hash[i]=hash[hash.length-1];\r\n                hash.pop();\r\n                delhash.push(messageHash);\r\n                return \"deleted\";\r\n            }\r\n        }\r\n        return \"not deleted\";\r\n    }\r\n\r\n}\r\n\r\n",
  "sourcePath": "E:\\Acadmics\\fallsem2023-24\\CSI3013-Blockchain\\Blockchain\\contracts\\valid.sol",
  "compiler": {
    "name": "solc",
    "version": "0.8.1+commit.df193b15.Emscripten.clang"
  },
  "schemaVersion": "3.4.16",
  "updatedAt": "2023-11-23T03:57:36.030Z",
  "networkType": "ethereum",
  "devdoc": {
    "kind": "dev",
    "methods": {},
    "version": 1
  },
  "userdoc": {
    "kind": "user",
    "methods": {},
    "version": 1
  }
}